:100000005446495300010000B874020079A6C2E8C2
:1000100010170138191030144431593010170200EC
:1000200019103014443130301017012819103014D1
:100030004431594C030000000000000000000000A3
:100040005446435300200000F44B0200000000001F
:100050000080011001210000252100004122000044
:10006000292100002B2100002D2100003D2100004E
:100070003D2100003D2100003D2100002F21000016
:10008000312100003D21000033210000115C0000FF
:10009000F75C0000372100003D210000B551001041
:1000A00037210000174000001D4000003D210000E6
:1000B0003D2100004B580000A94F000023400000E4
:1000C000D1550000372100003D2100003D210000F6
:1000D0000000000000000000000000000000000020
:1000E0000000000000000000000000000000000010
:1000F0000000000000000000000000000000000000
:1001000000000000000000000000000000000000EF
:1001100000000000000000000000000000000000DF
:1001200000000000000000000000000000000000CF
:1001300000000000000000000000000000000000BF
:1001400000000000000000000000000000000000AF
:1001500000F003F800F020F8FEE70D480168890878
:100160008900002001C101C101C101C17047000027
:10017000745E0010FEE7FEE7FEE7FEE7FEE7FEE73F
:10018000FEE7FEE7FEE703480047FEE7FEE7000064
:10019000202100003D21000000F002F800F068F886
:1001A0000AA090E8000C82448344AAF10107DA45D2
:1001B00001D100F05DF8AFF2090EBAE80F0013F0BC
:1001C000010F18BFFB1A43F00103184780EA010032
:1001D000C0EA01000A444FF0000C10F8013B13F094
:1001E000070408BF10F8014B1D1108BF10F8015B90
:1001F000641E05D010F8016B641E01F8016BF9D183
:1002000013F0080F1EBF10F8014BAD1C0C1B09D1D9
:100210006D1E58BF01F801CBFAD505E014F8016B4B
:1002200001F8016B6D1EF9D59142D6D370470000DD
:10023000103A24BF78C878C1FAD8520724BF30C812
:1002400030C144BF04680C607047000000230024E4
:1002500000250026103A28BF78C1FBD8520728BFD6
:1002600030C148BF0B6070471FB51FBD10B510BD32
:10027000DFF80CD0FFF7F8FF05F080FA1CF0C2FCA5
:100280000080011003B4FFF7F1FF03BC1CF0C2FCB7
:100290001EF0040F0CBFEFF30880EFF309800AF0A3
:1002A000B1BD000008B5002103200B460A460091AD
:1002B0001AF000F908BD38B5F74D00246C81AC8107
:1002C000EC811AF0C8F8E861FF20E871F348234692
:1002D0002246046044600472012028726C612C7014
:1002E0000320214600941AF0E5F8012038BD38B506
:1002F000E94D0228EC7922460DD0052810D0A24203
:1003000008BF38BD002003460246214600901AF07F
:10031000D1F8EC7138BD022914BF01240224EEE7A4
:10032000022914BF64246524E9E738B513460A4658
:100330004FF0010C00240146604600941AF0BAF810
:1003400038BDD549012048707047D3484078704780
:10035000D1490020487070472DE9F041044601273B
:10036000002503F00700CC4E8846012804BF00207A
:10037000F08146D0022844D1F08904280BD200280D
:1003800018BFB06902D11AF0BAF9B06110F8011BB8
:100390002170B0612EE0062808D21AF0B2F9F18976
:1003A000C1F10501C900C840207023E0082808D227
:1003B0001AF0ABF9F189C1F10701C900C8402070FA
:1003C00018E00C2808D21AF046F8F189C1F10B01A7
:1003D000C900C84020700DE00E2808D21AF03DF880
:1003E000F189C1F10D01C900C840207002E0FF2071
:1003F00020700027F089401C80B2F0810E2828BFB1
:10040000012588F800503846BDE8F08130B403F08B
:1004100007000024DFF880C201280BD06046BCF83A
:100420000E304089022B0CD2120242EA1020ACF8A6
:100430000A0010E0ACF80A40ACF80C40ACF80E40F2
:100440000CE01844851EB5F5806F04DADCF81C500A
:10045000284400F8022C581CACF80E000C7030BC7C
:1004600000207047F0B40746002003F007048A4DCF
:100470000646012C04BFEE812E6125D0DFF818C29C
:10048000022CBCF80CC003D013F0070F0DD01BE0FA
:10049000EA890CEB0203B3F5806F15D2E869C05C02
:1004A0003870501CE88101200EE0120242EA1C2242
:1004B000AA812B69012B05D1B2F5806F24BF40F2D0
:1004C000FF32AA815A1C2A610E70F0BC704738B501
:1004D00003F0070000240D4601280AD16E4821468A
:1004E0000B46C4814481848102200A46009419F09D
:1004F000E1FF2C70002038BD30B50C0068A183B03E
:1005000009684FF00002029108BF03250AD0217844
:1005100002AB5D5C002D18BF022D41D0012D7ED0B5
:10052000032D0DD10F210170032141704280828083
:10053000C280028142818281817B21F0010181732D
:10054000002D1EBF012D03B030BD05F025F9052893
:100550001CBF03B030BD0AF0ECFC042804BF03B09C
:1005600030BD002D0CBFC020C1208DF80000607888
:100570008DF8010060880123000A8DF80200A07840
:100580008DF80300A0880622000A8DF80400207967
:100590008DF80500694607200DF036FE03B030BD2A
:1005A000617800EB011202F8101C617800EB011178
:1005B00001F80F5C6278618800EB021222F80E1CD1
:1005C0006278A18800EB021222F80C1C6278A179F3
:1005D00000EB021222F80A1C6278217A00EB021268
:1005E00022F8081C6278617A00EB021222F8061CDD
:1005F0006278217B00EB021222F8041CE1790529C4
:10060000617800EB011010F8021C0EBF41F00101EF
:1006100021F0010100F8021C92D132E0FFE761787D
:1006200000EB011303F8101C6378012100EB0313A6
:1006300003F80F1C6378618800EB031323F80E1C8A
:100640006378A18800EB031323F80C1C617800EB9E
:10065000011121F80A2C617800EB011121F8082C16
:10066000617800EB011121F8062C617800EB011193
:1006700021F8042C617800EB011010F8021C21F025
:10068000010100F8021C5BE70349002088707047F5
:10069000014880787047000000840010F88800103E
:1006A000030002017C490120887070477B4A115485
:1006B0007047794800B5C06983B04FF000014078B9
:1006C00010F0020F0AD000918DF8041001230522CA
:1006D000694600200DF0CFFD03B000BD10F0040FFF
:1006E00012D001208DF800008DF801108DF8021055
:1006F0008DF803108DF8041003460522694600208A
:100700000DF0B9FD03B000BD10F0080F12D00220AB
:100710008DF800008DF801108DF802108DF803108F
:100720008DF8041001230522694600200DF0A3FD79
:1007300003B000BD03B001230022632107205DF850
:1007400004EB0DF031BD10B5044615F0D7F80028C4
:1007500018BF10BD226812F0C00F12D04E4812F020
:10076000400F04BF0021017004D0012101704169D4
:10077000491C416101230021BDE8104006200DF015
:1007800013BD012300226321BDE8104007200DF0B6
:100790000BBD70474049002818BF01200872704700
:1007A0003D48007A70473C48C0787047002818BF21
:1007B00001203949C87070473748C07870473649BA
:1007C0000871704734480079002818BF012070472D
:1007D00001460020072904BF31487047082908BF97
:1007E0003048704710B44FF0000C072808BFDFF8FE
:1007F000B0C003D0082808BFDFF8A8C04FF0000041
:10080000ABB1002A9CBF10BC70473CF91030141AE1
:1008100001EB440434F9024C234403EBD3735B1023
:100820002CF81030401C8242EFD810BC7047002AD0
:100830009CBF10BC7047131A01EB430333F8023C12
:100840002CF81030401C8242F5D810BC704712487A
:100850000078002818BF012070470F484069704792
:100860000D4948617047002818BF01200A494871A6
:10087000704709484079002818BF012070470028B8
:1008800018BF012004498871704703488079002807
:1008900018BF01207047000000840010F888001085
:1008A0000A890010028900107047FE48D0F85003F2
:1008B00000F00100704770B5FA4D04000AD001F055
:1008C0003DFB38B9D5F8500310F0010F1CBF0020D4
:1008D000A86005D10120A860002C08BF002000D02E
:1008E0000120286270BDEF48006A002818BF01206F
:1008F0007047C00000F1804000F5A04041637047A0
:10090000C00000F1804000F5A040006B00F4807052
:1009100070471021C00000F1804000F5A040416305
:100920007047E049D1F8402160F30D22C1F8402121
:100930007047DC48D0F84001C0F30520704700F054
:100940000F0202EB42029201C0F3031002EB80108F
:1009500000F1804000F5A0400029D0F8401114BFFC
:1009600041F0010121F00101C0F84011704700F091
:100970000F0101EB41018901C0F3031001EB80106D
:1009800000F1804000F5A040D0F8400100F00100E7
:100990007047C44900230B6202680A6042684A60DB
:1009A00082688A60C268CA60426A0A64826A4A646B
:1009B00002698A614269CA61826B0A66826C0A674F
:1009C000C26C4A67026D8A67426DCA67826DC1F860
:1009D0008020C26DC1F88420026EC1F88820426E6A
:1009E000C1F88C20426FC1F8B020C26FC1F8B820A6
:1009F000C26EC1F8A820D0F89422C1F85023D0F8D4
:100A00009822C1F85423D0F89C22C1F85823D0F87A
:100A1000A022C1F85C23D0F88420C1F8F020D0F8DF
:100A20008820C1F8F420D0F88C20C1F8F820D0F844
:100A30009020C1F8FC2021224A63CA63C2694A623D
:100A4000C26A8A64026BCA64026FC1F8AC20026A8F
:100A5000CA62426B0A65C26B4A66026C8A66426C65
:100A6000CA66826FC1F8B420D0F88020C1F8BC20DB
:100A7000D0F8A422C1F86023D0F8A822C1F86423DA
:100A8000D0F8AC22C1F86823D0F8B022C1F86C23AA
:100A9000D0F8B422C1F87023D0F8B822C1F874237A
:100AA000D0F8BC22C1F87823D0F8C022C1F87C234A
:100AB000D0F88C2222F48032C1F84023D0F8902262
:100AC000C1F84C23D0F89420C1F80021D0F8982028
:100AD000C1F80421D0F89C20C1F80821D0F8A0204A
:100AE000C1F80C21D0F8A420C1F81021D0F8A8201A
:100AF000C1F81421D0F8C820C1F83421D0F8AC20B6
:100B0000C1F81821D0F8B020C1F81C21D0F8B420C9
:100B1000C1F82021D0F8B820C1F82421D0F8BC2099
:100B2000C1F82821D0F8C020C1F82C21D0F8C42069
:100B3000C1F83021D0F8CC20C1F84021D0F8D02025
:100B4000C1F84421D0F8D820C1F84C21D0F8E420D5
:100B5000C1F86021D0F8E820C1F86421D0F8EC2079
:100B6000C1F86821D0F8F020C1F86C21D0F8D42069
:100B7000C1F84821D0F8DC20C1F85021D0F8E0209D
:100B8000C1F85421D0F8F420C1F87021D0F8F82031
:100B9000C1F87421D0F8FC20C1F87821D0F80021E8
:100BA000C1F87C21D0F83C21C1F8C021D0F8402107
:100BB000C1F8C421D0F84421C1F8C821D0F8482197
:100BC000C1F8CC21D0F84C21C1F8D021D0F8502167
:100BD000C1F8D421D0F87021C1F8F421D0F8542103
:100BE000C1F8D821D0F85821C1F8DC21D0F85C2117
:100BF000C1F8E021D0F86021C1F8E421D0F86421E7
:100C0000C1F8E821D0F86821C1F8EC21D0F86C21B6
:100C1000C1F8F021D0F87421C1F80022D0F8782171
:100C2000C1F80422D0F88021C1F80C22D0F88C2120
:100C3000C1F82022D0F89021C1F82422D0F89421C4
:100C4000C1F82822D0F89821C1F82C22D0F8AC2184
:100C5000C1F84022D0F8B021C1F84422D0F8B82120
:100C6000C1F84C22D0F8C421C1F86022D0F8C821C4
:100C7000C1F86422D0F8CC21C1F86822D0F8D02184
:100C8000C1F86C22D0F87C21C1F80822D0F8842168
:100C9000C1F81022D0F88821C1F81422D0F89C2184
:100CA00002E0000000500040C1F83022D0F8A0213E
:100CB000C1F83422D0F8A421C1F83822D0F8A821F4
:100CC000C1F83C22D0F8B421C1F84822D0F8BC21A8
:100CD000C1F85022D0F8C021C1F85422D0F8D42154
:100CE000C1F87022D0F8D821C1F87422D0F8DC21E4
:100CF000C1F87822D0F8E021C1F87C22D0F8E421B4
:100D0000C1F88022D0F8E821C1F88422D0F8EC2183
:100D1000C1F88822D0F8F021C1F88C22D0F8F42153
:100D2000C1F89022D0F8F821C1F89422D0F8182206
:100D3000C1F8B422D0F8FC21C1F89822D0F80022E2
:100D4000C1F89C22D0F80422C1F8A022D0F80822D1
:100D5000C1F8A422D0F80C22C1F8A822D0F81022A1
:100D6000C1F8AC22D0F81422C1F8B022D0F81C226D
:100D7000C1F8C022D0F82022C1F8C422D0F828221D
:100D8000C1F8CC22D0F83422C1F8E022D0F83822C1
:100D9000C1F8E422D0F83C22C1F8E822D0F8402281
:100DA000C1F8EC22D0F85422C1F80023D0F8582220
:100DB000C1F80423D0F86022C1F80C23D0F86C22CB
:100DC000C1F82023D0F87022C1F82423D0F874226F
:100DD000C1F82823D0F87822C1F82C23D0F8242297
:100DE000C1F8C822D0F82C22C1F8D022D0F8302285
:100DF000C1F8D422D0F84422C1F8F022D0F8482219
:100E0000C1F8F422D0F84C22C1F8F822D0F85022D0
:100E1000C1F8FC22D0F85C22C1F80823D0F8642283
:100E2000C1F81023D0F86822C1F81423D0F87C222E
:100E3000C1F83023D0F88022C1F83423D0F88422BE
:100E4000C1F83823D0F88822C1F83C23FD4A126843
:100E500032F0FF0C05D1D1F890C062F3030CC1F859
:100E600090C0F94A5370D0F8943213F0010F1CBFB0
:100E700001235370D1F8503323F00103C1F85033EC
:100E8000D0F8A43213F0010F03D0537843F00203DB
:100E90005370D1F8603323F00103C1F86033D0F808
:100EA000B43213F0010F03D0537843F004035370AE
:100EB000D1F8703323F00103C1F87033D0F8AC02DD
:100EC00010F0010F03D0507840F008005070D1F8B6
:100ED000680320F00100C1F868037047DA48007821
:100EE0007047D94880787047D749C8707047D6484E
:100EF000C0787047D549D1F8542360F30902C1F88E
:100F000054237047D148D0F85403C0F30900704708
:100F1000CD4948607047CD48C06870472DE9F0471B
:100F2000DFF82493054615F4003F99F8010099F87D
:100F3000031000EA010418BF24F0010415F4802F07
:100F400018BF24F0020415F4002F18BF24F0040485
:100F500015F4801F18BF24F00804DFF8F082D8F8D9
:100F6000400320F48030C8F8400314F00F0F65D020
:100F7000D9F80460D8F84803002740F00100C8F809
:100F80004803D8F8480320F00100C8F84803D8F80F
:100F9000400340F48030C8F840034FF0630A0DE08E
:100FA00002F0C7FE5046D8F8481311F0010F01D0E7
:100FB000012703E0011EA0F10100F4DC301EA6F1C0
:100FC000010601DD002FEBD0BFB3D8F8500314F0B9
:100FD000010F0CBF20F0010040F00100C8F85003E1
:100FE000D8F8600314F0020F14BF40F0010020F0A5
:100FF0000100C8F86003D8F8700314F0040F14BFA0
:1010000040F0010020F00100C8F87003D8F8680330
:1010100014F0080F14BF40F0010020F00100C8F8E0
:10102000680389F80240012089F80000D8F84003DD
:1010300040F48030C8F840033AE0FFE7D8F85003A6
:1010400020F00100C8F85003D8F8600320F0010038
:10105000C8F86003D8F8700320F00100C8F87003E6
:10106000D8F8680320F00100C8F86803002089F868
:101070000200ACB1022089F80000D8F8400340F427
:101080008030C8F84003D8F8480340F00100C8F8A1
:101090004803D8F8480320F00100C8F8480307E0E7
:1010A000D8F8401321F48031C8F8401389F80000C3
:1010B000D8F8400115F0020F20F00D0018BF40F0E5
:1010C000010015F0080F18BF40F0040015F0040FE0
:1010D00018BF40F00800C8F8400115F0010F21D0FA
:1010E00001F061F9044601F061F90146D8F80C00FD
:1010F00000280EBF2046084621460028D8F80002E6
:1011000014BF40F0010020F00100C8F80002D8F838
:101110004002002914BF40F0010020F00100C8F88F
:1011200040020BE0D8F8000220F00100C8F80002ED
:10113000D8F8400220F00100C8F8400215F0200F56
:1011400018BF002417D0204601F037F900284FEAD5
:10115000841000F1804000F5A040D0F8C01214BF08
:1011600041F0010121F00101C0F8C012641C022C01
:10117000E9D3BDE8F087D8F8C00220F00100C8F834
:10118000C002D8F8000320F00100C8F80003BDE851
:10119000F0872DE9F003024602F00F01002001EB79
:1011A00041018C01C2F3031104EB811101F1804173
:1011B00001F5A041D1F8401111F0010F11D142F019
:1011C0001001C1F3031104EB811101F1804101F51C
:1011D000A041D1F8401111F0010F04BFBDE8F003A8
:1011E000704702EB42018E0106F1804101F5A041FA
:1011F000D1F82431C3F30809144BDB69D1F800118D
:1012000003F008071FFA81F8002142EA0113C3F333
:10121000031304EB831303F1804303F5A043D3F8D6
:10122000403113F0010F20D006EB811303F180430E
:1012300003F5A043D3F844C1CCF3080517F1000C23
:1012400006E00000E0FE0300208400100050004093
:101250001CBFD3F844C1CCF3023CD3F8403105FAAB
:101260000CFCC3F3054360441844491C0229CCD349
:1012700009EBC90100FB08F001EB0911BDE8F0031F
:1012800000EB4100704710B50120FFF782FF0446D4
:101290000220FFF77EFF044400F03DFC20444FF4A1
:1012A0007A7148434CF25031B0FBF1F010BD2DE99A
:1012B000F041FB4E0546306810F01F0408BF0124C2
:1012C0000120FFF766FF07460220FFF762FF074491
:1012D00000F021FC3918F34F002D18BF00294ED023
:1012E000D6F85003002210F0010F36D07820B0EB72
:1012F000151F08D9D6F85C0320F00F0040F001005C
:10130000C6F85C032EE0D6F85403E74BC0F309009F
:1013100060436FF0180C00FB0CF003EB4003E34854
:10132000A0FB05C04FEA502CB3FBF1F0102828BFFA
:101330000F20844598BF6046002808BF012005D0D3
:10134000012884BF00FB1132B2FBF0F2D6F85C3307
:1013500060F30303C6F85C3304E0B7FBF5F08842A2
:1013600088BF421A32206043B2FBF0F0B0F5005F54
:1013700028BF41F6FF70726860F30C0272607068FB
:10138000C0F30C00604300EBC00202EB001001EB65
:101390004000B7FBF0F0BDE8F081C148D0F8501331
:1013A00011F0010F07D0D0F85C0300F00F00C0EB84
:1013B00000108001704770B50168406801F01F059A
:1013C000C0F30C060120FFF7E4FE04460220FFF7FD
:1013D000E0FE044400F09FFB06FB05F1322201FB16
:1013E00002410844AF49B1FBF0F070BDAC48D0F801
:1013F0005C0300F00F007047A9494A684B68C2F3CC
:101400000C0260F30C034B6010467047A448406820
:10141000C0F30C00704700EB4000800100F18040F9
:1014200000F5A040D0F80001A14980B2B1FBF0F076
:10143000401C4008704730B49D4B31B1B3FBF1F113
:10144000491C4A08B2F5804F01D343F6FF72B3FB43
:10145000F2F1491C4D0800EB40018901530801F1EC
:10146000804101F5A041002807BF981FA3F10C0C93
:10147000D1F8040180B218BFA2F1060C2CF0010CC7
:10148000D1F8004162F30F04C1F80041D1F8002106
:1014900063F31F42C1F80021D1F8042160F30F0269
:1014A000C1F80421D1F818016CF30F00C1F818013C
:1014B000284630BC704700EB4000800100F18040BE
:1014C00000F5A040D0F80001000C704700EB40028E
:1014D000920102F1804202F5A042D2F8003161F39C
:1014E0001F43C2F80031002818BF70478A1F901FA1
:1014F00020F001016A48D0F8043162F30F03C0F80C
:101500000431D0F8182161F30F02C0F81821704798
:1015100000F00F0101EB41018901C0F3031001EB61
:10152000801000F1804000F5A040D0F84401C0F3E5
:101530000800704700F00F0202EB42029201C0F374
:1015400003105C4B02EB801000F1804000F5A040DE
:101550009B58D0F84421CB1A61F30802C0F844210B
:10156000D0F844119B1E63F31841C0F84411704732
:101570004B49C969504A11F0100F00F00F0101EBFF
:1015800041014FEA8111C0F3031001EB801000F11B
:10159000804000F5A0405258D0F84401D2B2C0F3C8
:1015A000080008BF0022801A0004000C08BF0120B8
:1015B000704703091B0203EB810101F1405101F562
:1015C00040410007C00E0B6802FA00F018430860A3
:1015D00070470209120202EB810101F1405101F54D
:1015E000404100070968C00E21FA00F000F0030036
:1015F000704700F00F0303EB43039B01C0F303109C
:1016000003EB801000EB810000F1804000F5A0406A
:10161000C0F85021704700F00F0202EB4202920125
:10162000C0F3031002EB801000EB810000F180405A
:1016300000F5A040D0F850017047194A0021D26946
:1016400012F0080F10D000F00F0101EB41018901E9
:10165000C0F3031001EB801000F1804000F5A040C2
:10166000D0F84401C0F30231084670470C4AD369F0
:1016700043F00803D36100F00F0202EB4202920133
:10168000C0F3031002EB801000F1804000F5A04091
:10169000D0F8442161F30E32C0F8442170470000B5
:1016A000005000400008AF2FD8810C00898888883E
:1016B000A08601001C51004028510040F84A00213A
:1016C000D26912F0080F10D000F00F0101EB4101B8
:1016D0008901C0F3031001EB801000F1804000F598
:1016E000A040D0F84801C0F302410846704700F01E
:1016F0000F0202EB42029201C0F3031002EB8010D2
:1017000000F1804000F5A040D0F8482161F312427A
:10171000C0F848217047042988BF704710B40023DF
:10172000DF4CE26912F0080F00F00F0202EB4202F8
:101730004FEA8212C0F3031002EB801000EB0402A8
:101740001CBFD2F84401C0F302330020D4F81CC0FF
:101750001CF0080F1CBFD2F84801C0F30240C91AA0
:101760000844042803DD081A011D042003E00028B2
:10177000BCBF014400201944E36943F00803E3615E
:10178000D2F8443161F30E33C2F84431D2F8481133
:1017900060F31241C2F8481110BC7047C0490028DC
:1017A000886914BF40F0080020F008008861704785
:1017B000BB488069C0F3C000704700F00F0202EB25
:1017C00042029201C0F3031002EB801000F180404E
:1017D00000F5A040C0F84C11704700F00F0101EB7C
:1017E00041018901C0F3031001EB801000F180403A
:1017F00000F5A040D0F84C017047A94AD2F85C131C
:10180000022903D110F0010F18BF7047D2F8400130
:1018100010F0010F0BD0D2F84C01D2F8441100287F
:10182000C1F302311EBF0029C043C2F84C0101219F
:1018300001EB410100204FEA811C0CEB801101F10A
:10184000804101F5A041D1F8402112F0010F0BD0E9
:10185000D1F84C21D1F84431002AC3F302331EBF22
:10186000002BD243C1F84C21401C0228E5D370471D
:101870008B4A0021D26912F0080F10D000F00F013E
:1018800001EB41018901C0F3031001EB801000F16D
:10189000804000F5A040D0F84801C0F30051084650
:1018A00070470120704710B4022ADDF804C026BF3B
:1018B000921E52080022022B26BF9B1E5B080023AB
:1018C000784CA4FB0C4C4FEA1C1400F00F0C0CEBF2
:1018D0004C0C4FEA8C1CC0F303100CEB801000F191
:1018E000804000F5A040D0F864C161F31B6C62F346
:1018F000144C63F30C2C64F3070CC0F864C110BCE7
:10190000704770B400F00F0404EB4404A401C0F36A
:10191000031004EB801000F1804000F5A040DDF8DA
:101920000CC0D0F864010029C0F30366C0F304447E
:10193000C0F30425C0B218BF0E6012B16100891C4B
:10194000116013B16900891C1960BCF1000F04BF5C
:1019500070BC704700EB80008000CCF8000070BCC9
:10196000704770B491B000224FF480456C10EC4683
:1019700001E0082A05D2531C03EB8303B5FBF3F304
:1019800004E0D31F03EB8303B4FBF3F35B1A48BFFC
:101990005B424CF82230521C102AEAD30026009BEE
:1019A00001215CF821209A42BCBF13460E46491C17
:1019B0001029F6D300F00F0101EB41018901C0F3BA
:1019C000031001EB801000F1804101F5A041D1F836
:1019D0006801D1F8682100F00F0066F30302C1F836
:1019E0006821082807D2401C00EB8000B5FBF0F00E
:1019F00011B070BC7047C01F00EB8000B4FBF0F06A
:101A000011B070BC704700F00F0101EB410189017A
:101A1000C0F3031001EB801000F1804000F5A040FE
:101A2000D0F8680100F00F00082834BF401CC01F28
:101A300000EB800034BF4FF480414FF40051B1FB04
:101A4000F0F0704710F00F0F08BF704700F00F0064
:101A500000EB4000800100F1804000F5A04000292B
:101A6000D0F82C110CBF21F4803141F48031C0F842
:101A70002C117047002110F00F0F0ED000F00F0056
:101A800000EB4000800100F1804000F5A040D0F85C
:101A90002C0110F4803F18BF012108467047000058
:101AA00000500040CDCCCCCC00F00F0000EB40004B
:101AB000800100F1804202F5A042D2F83401C2F860
:101AC000341170472F4B58679967DA6770472D4973
:101AD0000028D1F8AC0014BF40F0020020F0020052
:101AE000C1F8AC00704727490028D1F8AC0014BFFA
:101AF00040F0010020F00100C1F8AC00704721481F
:101B0000D0F8E00070471F49C1F8E40070471D4855
:101B1000D0F89800704770B41A4E0020D6F84011E3
:101B200011F0010F04BF70BC704711F0040FD6F81C
:101B3000242101F00805D6F800C1C2F308021FFAFB
:101B40008CF4D6F844C1CCF3080C18BFC1F307409D
:101B5000F369C1F3052113F008031CBFD6F8443123
:101B6000C3F30233002D18BF491C0CFA03F301FB29
:101B70000300604302EBC20170BC01EB021100EBF9
:101B80004100704700500040FEF7ADBE10B5FEF7B3
:101B9000AAFE012818BF10BD0020FEF78CFE2121EF
:101BA0000020FEF7A6FE2121BDE810400120FEF72F
:101BB000A0BE10B5FEF778FEFEF795FE01280AD10B
:101BC0000020FEF778FE21210020FEF792FE212161
:101BD0000120FEF78EFE0121052001F0F4FB01211A
:101BE000052001F0F0FBFF490020C87110BD10B5C1
:101BF0004FF4066001F03DFCBDE810404FF4066074
:101C000001F028BCF74A01465079002818BF01208E
:101C1000002918BF01215171002191717047F14ACB
:101C2000516A506208467047EE490020087188707A
:101C300048707047EB490020087188704870704701
:101C400070B50007C00E0D46801E00EB400101EB91
:101C50000014E5484FF4987200EBC40029461AF0CE
:101C6000DFFFE24805F5987100EBC400BDE8704065
:101C70004FF498721AF0D4BF2DE9F0410546FEF7F3
:101C800058FEDB4FDFF86C830446EDB14C2004FBBB
:101C900000F21646294638461AF0C2FF324605F5CC
:101CA000006140461AF0BCFF04EB440000EB041452
:101CB00007EB84004C211AF0B8FF08EB8400BDE864
:101CC000F0414C211AF0B1BF4C21401C41430C465D
:101CD00038461AF0AAFF21464046BDE8F0411AF006
:101CE000A4BF10B5BF4CE061FFF718F9FFF7F6F895
:101CF000A1696FF30F01A161A269C1B242EA01219A
:101D0000A161022818BF10BDA06940F00100A061C8
:101D100010BDB9488168B94A114381600168521CFD
:101D20001143016000F065BE2DE9F041B24A0C4656
:101D300005469168B148084390601368B04818435D
:101D4000106000F056FE0026002C76D00020FEF732
:101D5000B2FD206820B1FEF71CFE0020FEF7ABFDAF
:101D60002846FFF7BEFF0020FEF701FE70B3606853
:101D7000FFF782FFA348E16819B102151AF050FF7E
:101D80001DE0A14D4FF440711AF04FFF00200123D8
:101D90002956002910DB0A09120202EB800202F127
:101DA000405202F540420907C90ED2F800C003FABA
:101DB00001F14CEA01011160401C2628E8D3934848
:101DC000616959B14FF400721AF02AFF0120FEF741
:101DD000CEFDDFF81482854F48B904E04FF400715E
:101DE0001AF023FFF2E71120FEF7C1FD70B1A568DC
:101DF00065B140464FF4987229461AF011FF3846F3
:101E00004FF4987205F598711AF00AFF0220FEF758
:101E1000AEFD18B91220FEF7AAFD70B1246964B1B5
:101E20007B484FF4987221461AF0FAFE79484FF435
:101E3000987204F598711AF0F3FE6A48067186707C
:101E40004670466241790021417186714FF4066007
:101E500001F00FFBBDE8F0414FF4066001F0FABA63
:101E600010B50020FEF727FD00F0B0FD5D48C078FA
:101E7000002808BF10BD6048016821F0030141F04F
:101E80000D7141F080510160816821F0020141F043
:101E90000D7141F08051816010BD4FF4066001F07A
:101EA000DEBA10B54FF4066001F0D9FAFEF71BFD5B
:101EB00001280AD10020FEF7FEFC21210020FEF7B8
:101EC00018FD21210120FEF714FD5348D0F84013DE
:101ED00021F48031C0F840130020FEF7ECFC00F044
:101EE00075FD4048C078002808BF10BD4248016811
:101EF00021F0030141F00D7141F0805101608168D2
:101F000021F0020141F00D7141F08051816010BD5E
:101F100010B501F0A9FA10F0600018BF012010BD43
:101F20003048C06970472F488069704772B62D49A4
:101F30008A6922EA0000886162B670472948007801
:101F4000002818BF0120704770B5FEF7CCFC0028B0
:101F500018BF70BD0024234D2C71AC706C70212112
:101F60002046FEF7C6FC21210120FEF7C2FC2C70A2
:101F7000BDE870400120FEF79EBC70B50446FEF738
:101F8000B2FC002818BF70BD0021164D2971A97040
:101F9000697021210020FEF7ACFC21210120FEF711
:101FA000A8FC022C3CBF0120FEF7B3FC01202870E6
:101FB0002C62BDE87040FEF77EBC10B5FEF793FCC6
:101FC000002818BF10BD0020064C2071A070607062
:101FD0002121FEF78EFC21210120FEF78AFC012041
:101FE0001CE0000028840010189D003018BD00304F
:101FF0000080003000A00030008000400200341259
:102000000300341200C000301489001000D00030EA
:10201000489E003048BE003000500040FEF779FC7A
:10202000012020702062BDE81040FEF744BC002073
:10203000FEF741BCFE490020887048700120FEF781
:102040003ABCFB4988627047F948806A70470028AB
:1020500018BF0120F649C8627047F548C06A0028D9
:1020600018BF01207047002000F0CFBB012000F016
:10207000CCBB10B5FFF743FD0446FFF744FDED4828
:10208000044208BF10BDEA48816941F00401816142
:102090000E2101EAD43104F001020A43816962F39E
:1020A0001F418161E448016841F02001016010BDD9
:1020B000002818BF0120DE49C8707047DF4870470C
:1020C000DF487047DA48006B7047D948406B70476B
:1020D000D748806B70472DE9F04FD84F4FF0000C78
:1020E0008DB007F14C04E6464FF0FF3807F80C803E
:1020F00004F80CE00CF1010CBCF1260FF6DB4FF0FC
:10210000000C002807DD12F80C5007F80C500CF1F9
:10211000010C6045F7DC00220126CDF804E06D4695
:10212000CDF800E0002816DD17F902C0BCF1000F61
:102130000EDBBCF1260F0BD24FEA5C190CF01F0C22
:1021400055F829A006FA0CFC4AEA0C0C45F829C0FF
:10215000521C8242E8DB002294460DF108094FEA46
:10216000521A02F01F0B55F82AA006FA0BFB1AEAC6
:102170000B0F1ABF09F802C00CF1010C09F802801C
:10218000521C262AEBDB0022002810DD17F902C0C2
:10219000BCF1000F08DBBCF1260F3ABF19F80CC0E8
:1021A00004F802C004F80280521C8242EEDBDFF821
:1021B00080A200220028CAF830E009DD14F902C02C
:1021C000944502D0CAF8304002E0521C8242F5DB4E
:1021D000DFF870B20020ABF1720404F14C0704F890
:1021E000008007F800E00BF800E0401C2628F6DB32
:1021F0000020002904DD1A5C2254401C8142FADCD4
:102200000020CDF804E0CDF800E0002912DD2256D0
:10221000002A0CDB262A0AD2530902F01F0255F8C5
:1022200023C006FA02F24CEA020245F82320401CC1
:102230008842ECDB00200246430900F01F0C55F8F1
:10224000233006FA0CFC13EA0C0F1ABF09F8002021
:10225000521C09F80080401C2628EDDB00200029D4
:102260000BDD2256002A05DB262A3CBF19F8022086
:102270000BF80020401C8842F3DB0020CAF838E04D
:10228000002909DD1BF90020824202D0CAF838B0CB
:1022900002E0401C8842F5DB11F0010F18BF252039
:1022A00015D0420900F01F0355F8222006FA03F367
:1022B0001A420AD1420900F01F0055F8223006FAEE
:1022C00000F0184345F8220001E0401EE9D5002047
:1022D0000246430900F01F0C55F8233006FA0CFCA7
:1022E00013EA0C0F1ABF09F80020521C09F80080ED
:1022F000401C2628EDDB002000290ADD2256002A9A
:1023000004DB262A3CBF19F802203A54401C8842BC
:10231000F4DB0020CAF834E00029DCBF0DB0BDE8D2
:10232000F08F3A56824204D0CAF834700DB0BDE83E
:10233000F08F401C8842F4DB0DB0BDE8F08F40F216
:10234000DB114843404901EB800070473F49C0EB37
:10235000001001EBC0007047DFF8D4C0012B8CF8EF
:1023600008008CF8091003D9401C20F00100114628
:102370008CF80A008CF80B1000FB01F24FF6FF718D
:1023800001EA4202ACF8122001EA4000ACF8140065
:1023900070472748C07A70472548807A7047244A9A
:1023A0001073517370472248407B70472048007B70
:1023B0007047274A1070517070472549085C704774
:1023C0002DE9F047DFF86890044699F805000028E9
:1023D00004BF99F801001AF02DFC99F804000028B8
:1023E00008BFBDE8F0874FF00008D9F81C00474649
:1023F0004646454610F0020F1CBFDFF84C8010F037
:10240000040F05D0B9F812100F4A21F001018F18FE
:1024100010F0010F18BF0D4E10F0200F18BF0D4D1A
:10242000D9F828002060FEF75CFD10F0010F13E0E2
:10243000288400100100070068840010148900102F
:102440003A890010AC890010D48900104091001026
:10245000368400103092001006D0FEF7C7FF022825
:1024600028BF99F8020000D20020E760C4E9010803
:10247000C4E904650120BDE8F087FF48002101712F
:102480008171704770B50546FEF753FA4C2100FB89
:1024900001F21446F94928461AF0C2FB224605F516
:1024A0000060BDE87040F6491AF0BABBF0B583B0E1
:1024B000FEF73FFA044600210846FFF7ACF800900B
:1024C00001210020FFF7A7F800220190002C2AD953
:1024D0006E464FF0010C4FF6F07502EB4200002102
:1024E00000EB02104B0901F01F0756F823300CFADD
:1024F00007F73B4211D0CB079B0C03EB80034F083F
:1025000003EB870303F1405303F500431B889BB2A1
:10251000AB4202D903B00020F0BD491C2629E1D30B
:10252000521CA242D9D303B00120F0BD70B50D46B4
:102530000107C80E811E01EB410000EB0114D148D8
:102540004FF4987200EBC40128461AF069FBCE489C
:102550004FF4987200EBC40105F59870BDE8704027
:102560001AF05EBB2DE9F04F00F00F07780083B042
:10257000A0F1020B0025E9464FF001084FF6F07676
:1025800047EA051A5046FEF7F2F9002843D05046B4
:10259000FFF753F808FA00F4022C88BF0224002148
:1025A0005046FFF738F8009001215046FFF733F806
:1025B00000210190002C2ED90BEB0500982200FB86
:1025C00002FA01EB4102002002EB011C420900F07B
:1025D0001F0359F8222008FA03F31A4215D000F01D
:1025E00001020AEB423202EB8C02430802EB830247
:1025F00002F1405202F51042B2F8182D92B2B242E6
:1026000003D903B00020BDE8F08F401C2628DDD39D
:10261000491CA142D5D36D1C022DB1D303B00120BA
:10262000BDE8F08F2DE9F0410026934D00280C46BF
:1026300040D000F00F01C0F3031001290EBF0021AC
:102640000229BDE8F081022828BFBDE8F0810F18FB
:10265000FEF749F95FEA00081CBF0020FEF72BF9DE
:102660000023982007FB00FC03EB4300002200EB53
:10267000031702F001000CEB4030510800EB87001B
:1026800000EB810000F1405000F51040521CC0F8F2
:10269000184D262AEDD35B1C022BE5D3B8F1000FB1
:1026A00008BFBDE8F081AE706E70BDE8F04101205A
:1026B000FEF701B9FEF717F95FEA00081CBF00201A
:1026C000FEF7F9F8002303EB4300002200EB031CA4
:1026D000D007800C510800EB8C0000EB810707F15C
:1026E000405707F50047521C3C60262AF0D35B1C7C
:1026F000312BE8D3B8F1000FD5D1BDE8F08110B58A
:10270000FEF736FF5C49088210BD5B4AC1B200F497
:102710007F43128A914288BF11464FF0640C01FB3F
:102720000CF1B1FBF2F11A0A02FB0C1110F4803F1C
:1027300012BF08B2484200B2704710B54FF4407162
:10274000524C53481AF071FA0020012321560029F7
:1027500010DB0A09120202EB800202F1405202F57C
:1027600040420907C90ED2F800C003FA01F14CEA51
:1027700001011160401C2628E8D310BD10B5434C60
:102780004FF4407142481AF050FA002001232156BC
:10279000002910DB0A09120202EB800202F140520A
:1027A00002F540420907C90ED2F800C003FA01F150
:1027B0004CEA01011160401C2628E8D341F67871EB
:1027C0002E481AF032FABDE8104041F678712C48D4
:1027D0001AF02BBA284810B5808B00F48170FFF7EF
:1027E00080FA4FF440712A481AF01FFA41F6185146
:1027F00022481AF01AFA41F6185121481AF015FA2F
:10280000BDE810400020FEF7F7BD70B51A4C054634
:10281000A06A401CA062E16A002918BFFEF7EDFF24
:10282000207850B1206A10B1206A401E2062206AD0
:10283000002804BF0020FEF73EF820212846FEF7BE
:1028400058F8616A00291CBF28468847FEF746FBF6
:10285000022827D10F48D0F8481311F0010F21D0DA
:10286000D0F8481341F00101C0F84813D0F84813DC
:1028700021F0010110E000002884001000800030E9
:1028800000A00030189D003018BD003014890010E1
:1028900000C0003000500040C0F84813A06940F06C
:1028A0000200A0610248016841F02001016070BD92
:1028B00068840010F0B40024634E012382B0002825
:1028C00008BF33701CD00128347018BF747017D043
:1028D0005E4D28685E490843286031785D4A0029CA
:1028E00014BF49F608305C48D06014BF5B484FF015
:1028F000BB7090605A48006830F0FF0C08D101E0CE
:102900007370E5E7D2F80CC060F3030CC2F80CC09A
:1029100040F2E24CA9B1906840F0180090600120AC
:10292000009004E00198471E0197FBD20098471ED3
:10293000009728BFCDF804C0F4D2906840F48050CE
:1029400090600120009004E00198471E0197FBD29F
:102950000098471E009728BFCDF804C0F4D27078C5
:1029600018B1D06840F03000D060D2F8B00040F02C
:102970000100C2F8B0000120009004E00198461E5A
:102980000196FBD20098461E009628BFCDF804C0E1
:10299000F4D2D3674FF4E0601061C2F88840002998
:1029A00018BFC2F89430D06820F03000D060906832
:1029B00020F480509060286820F0040040F00D70F2
:1029C00040F08050286002B0F0BC70472148C168D8
:1029D00021F03001C160816821F4805181601B4881
:1029E000016821F0040141F00D7141F08051016056
:1029F000704716480268164911430160124915488C
:102A00000A783AB1826842F018028260826842F421
:102A100080528260497819B1C16841F03001C160CB
:102A2000D0F8B01041F00101C0F8B01070470D4966
:102A3000C0B241EA002007490864704705494FF0D9
:102A4000204008647047000064840010008000404B
:102A5000040034120060004005F4010020009B00D7
:102A6000D0FE0300130000A0424841498161891C47
:102A7000C1614A1E4263036823F0030343F00D73F0
:102A800043F080530360436923F0010343F00D7367
:102A900043F08053436103691A430261364A8260FE
:102AA000364AC260C2681143C160354900200860DF
:102AB000704710B501F035F931480468002C08BFA3
:102AC00030BFFAD00021016001F02FF9204610BD7F
:102AD00010B501F026F92648294B2649421C1C68EE
:102AE0002CB10020186001F020F9204610BD72B60C
:102AF00048638A6120BF88614A6362B6BFF36F8F03
:102B0000BFF34F8FEBE71B48016821F0030141F051
:102B10000D7141F0805101601A49816001691A4AC2
:102B20001143016130BF704772B6114911484163CA
:102B3000C91CC161891E816162B670470D48016878
:102B4000124A1143016070470A48016821F00301ED
:102B500041F00D7141F080510160704772B6044937
:102B600004488161891CC161491E416362B6704796
:102B700000003412008000403C003412280034125F
:102B8000688400100800341201003412030034126B
:102B9000704770470022B2EBD10F26D20368B3F121
:102BA000FF3F04BF4368B3F1FF3F17D18368B3F120
:102BB000FF3F04BFC368B3F1FF3F0FD10369B3F117
:102BC000FF3F04BF4369B3F1FF3F07D18369B3F10E
:102BD000FF3F04BFC369B3F1FF3F01D0002070473E
:102BE0002030521CB2EBD10FD8D30120704710B463
:102BF0000023B3EBD20F30D2D0F800C00C68A4454C
:102C000022D1D0F804C04C68A4451DD1D0F808C02A
:102C10008C68A44518D1D0F80CC0CC68A44513D159
:102C2000D0F810C00C69A4450ED1D0F814C04C697E
:102C3000A44509D1D0F818C08C69A44504D1D0F8B6
:102C40001CC0CC69A44502D010BC002070472030C5
:102C500020315B1CB3EBD20FCED310BC01207047E8
:102C60002DE9F041054601F064F8002021264FF4DB
:102C7000825784464FF4E0221660C5F800C0116800
:102C800041F004011160116811F0040FFBD11760CD
:102C900080232C460021D4F80080B8F1FF3F04BF08
:102CA000D4F80480B8F1FF3F1DD1D4F80880B8F102
:102CB000FF3F04BFD4F80C80B8F1FF3F13D1D4F824
:102CC0001080B8F1FF3F04BFD4F81480B8F1FF3F83
:102CD00009D1D4F81880B8F1FF3F04BFD4F81C80A4
:102CE000B8F1FF3F08D0C2F800C0401CC0B20828AD
:102CF000C2D30220BDE8F081491C2034B1EBD30FD0
:102D0000C9D3C2F800C00120BDE8F0812DE9F0412F
:102D1000054601F00EF80020092684464FF4E02312
:102D20001E60C5F800C0196841F0040119601968F7
:102D300011F0040FFBD12C464FF48062002127686C
:102D4000B7F1FF3F04BF6768B7F1FF3F17D1A7682E
:102D5000B7F1FF3F04BFE768B7F1FF3F0FD1276925
:102D6000B7F1FF3F04BF6769B7F1FF3F07D1A7691C
:102D7000B7F1FF3F04BFE769B7F1FF3F08D0C3F8E1
:102D800000C0401CC0B20328CAD30220BDE8F081B5
:102D9000491C2034B1EBD20FD1D3C3F800C00120BD
:102DA000BDE8F0812DE9F05F8846814604274FF0A9
:102DB0007F0A4FF0020B4FF4E02600F0BAFF4946BD
:102DC000424653464FF0060CC6F800B052F8040BCA
:102DD00041F8040BC6F800C0306810F0040FFBD1B6
:102DE0005B1EF1D2002030604C4645461F20D4E9DE
:102DF00000C3D4E90221D5F800E0E64504BFD5F8C8
:102E000004C09C4505D1AB68934204BFEA688A427E
:102E100008D07F1E03D34846FFF722FFCDE70220EC
:102E2000BDE8F09F10341035401EE0D20120BDE80F
:102E3000F09F70B50D46044600F07BFF4FF4007222
:102E40002146284619F0ECFE012070BD2DE9F04125
:102E50000546C005ADF5007D14460E46C00D25D0D3
:102E6000A8466FF308086F4600F063FF4FF4007246
:102E70004146384619F0D4FEC5F30800C0F5007786
:102E8000A74288BF274668443A46314619F0D7FE24
:102E90004046FFF7E5FE022844D069464046FFF76A
:102EA00081FF022843D03D443E44E41BB4F5007F3B
:102EB00019D34FF400723146684619F0C0FE284617
:102EC000FFF7CEFE02282DD069462846FFF76AFF9D
:102ED00002282CD0A4F5007405F5007506F50076DF
:102EE000B4F5007FE5D2C4B16F4600F022FF4FF485
:102EF00000722946384619F093FE2246314668464C
:102F000019F09DFE2846FFF7ABFE02280AD069465D
:102F10002846FFF747FF022809D00DF5007D012064
:102F2000BDE8F0810DF5007D0A20BDE8F0810DF5CA
:102F3000007D0B20BDE8F0812E490860086100F09B
:102F400010B82C490860486100F00BB8294948675F
:102F50007047284988677047264801210166016546
:102F600070474FF04022116B10F0010F18BF21F491
:102F7000404110F0020F1CBF21F4405141F4805138
:102F800010F0040F18BF21F4406110F0080F18BFB3
:102F900041F4407110F0100F18BF41F0C00110F063
:102FA000200F18BF41F0300110F0400F18BF41F062
:102FB0000C0110F0800F18BF41F0030141F4BE0175
:102FC00041F020411163D2F8901010F4807F1CBFB3
:102FD00021F0030141F0020110F4007F1CBF21F039
:102FE0000C0040F0080141F4BE0040F02040C2F85F
:102FF00090007047001000407047D0488268D04968
:103000000A438260C2681143C1604169CD4A1143DD
:1030100041617047C948416921F0010141F00D71DA
:1030200041F080514161C16821F0400141F00D71D2
:1030300041F08051C160816821F0400141F00D7183
:1030400041F080518160704710B5BC4CA168BC480C
:103050000143A160E1680843E0606069B949084341
:103060006061B94843F63F71C160002181638164AA
:10307000C0F8B01003210A2000F0A5F90A2000F0E2
:10308000C5F9606920F0010040F00D7040F08050FB
:103090006061E06820F0400040F00D7040F080502A
:1030A000E060A06820F0400040F00D7040F08050DB
:1030B000A06010BDA44A1060516048439060704702
:1030C000A14A10605160484310F0010F18BF401C26
:1030D000906070479C49C1F8B00070479A49002839
:1030E00018BF01208864704797498863C86840F01A
:1030F0000200C8607047DFF850C2CCF82000CCF85E
:103100002410CCF82820CCF82C300120CCF830004A
:10311000DCF8340010F0010F05D020BFDCF83400DB
:1031200010F0010FF9D110F0020018BF4FF0FF307E
:1031300070478548C16821F00201C160704782482C
:10314000C16841F00101C16070477F4B186259624C
:103150009A6201201864586C10F0010F04D020BF4F
:10316000586C10F0010FFAD110F0060018BF4FF0A4
:10317000FF3070477448C16821F00101C160704799
:103180007148C16841F00401C1607047027C017B55
:1031900002F03F0241EA02416B4A916501685162C7
:1031A000416891628168D16201211165516D11F010
:1031B000010F04D020BF516D11F0010FFAD1D36D72
:1031C0008382D36D1B0CC382136E0383136E1B0C9F
:1031D0004383536E8383526EC2F30E42C28311F057
:1031E000020018BF4FF0FF3070475748C16821F008
:1031F0000401C16070475448C16841F00801C160D2
:103200007047DFF844C1CCF87820CCF82000CCF827
:103210002430CCF828100120CCF87000DCF87400C1
:1032200010F0010F05D020BFDCF8740010F0010F82
:10323000F9D110F0060018BF4FF0FF307047424838
:10324000C16821F00801C160704701684FEA31424E
:103250003D49C1F89C204068C1F8A000C86840F012
:103260002000C860704701684FEA31423649C1F812
:103270009C208088C1F8A000C86840F02000C86089
:103280007047314B18625A6299620120C3F894006A
:10329000D3F8980010F0010F05D020BFD3F89800A4
:1032A00010F0010FF9D110F0060018BF4FF0FF30F9
:1032B0007047254A106251620120C2F89000D2F88E
:1032C000980010F0010F05D020BFD2F8980010F040
:1032D000010FF9D110F0060018BF4FF0FF30704712
:1032E0001948C16821F02001C16070471648C168C3
:1032F00041F01001C1607047A3F1050C124BC3F8F7
:1033000088C018625A6299620120C3F88000D3F81D
:10331000840010F0010F05D020BFD3F8840010F016
:10332000010FF9D110F0060018BF4FF0FF307047C1
:103330000548C16821F01001C1607047008000405D
:103340004000341201003412009000401B4810B5B8
:10335000022140F8501F012101611021416241F218
:103360000601416100218161042181639021416353
:10337000416B41F0010141634FF4817101610161D1
:10338000032000F043F80021032000F01CF8002087
:1033900010BD10B5032000F045F808484FF48071C7
:1033A000016600210166102181670221416500202C
:1033B00010BD034900200870704700000030004035
:1033C0006C840010704700F00303DA004FF0FF0C2C
:1033D0000CFA02F24FF0050C0CEBC30301FA03F3F5
:1033E00000F00C0101F1E021002807DAD1F8140DFA
:1033F00090431A401043C1F8140D7047D1F80004EF
:1034000090431A401043C1F80004704700F01F01B8
:10341000012202FA01F14009800000F1E020C0F829
:103420000011704700F01F01012202FA01F140096A
:10343000800000F1E020C0F88011704700F01F010B
:10344000012202FA01F14009800000F1E020C0F8F9
:10345000801270474FF0E021C1F8000170474FF033
:10346000E021C1F8800170474FF0E020D0F8000162
:1034700070474FF0E021C1F88002704708480068AB
:103480007047074A1168106008467047044A12687E
:1034900000F1100352F8230042F823107047000097
:1034A00008ED00E002210C20FFF78DBFB8488268CC
:1034B000B8490A438260C2681143C1607047B4488A
:1034C000816821F4805141F00D7141F0805181609B
:1034D000C16821F4805141F00D7141F08051C1600B
:1034E0007047AD4881B0016F11F4007FFBD1816E50
:1034F00011F0010F1CBFD0F88410009104D0D0F857
:103500008410009A9142FAD0016F11F4007F04BF39
:103510004CF27101016642F24131816601B070479F
:103520009D4981B04FF40D528A660A6FCA66012820
:1035300098BF012005D9401EB0F5803F28BF4FF647
:10354000FF7082B24FF05C5040EA022048664FF0B4
:103550001140C1F88000086F10F4007FFBD1886E25
:1035600010F0010F1CBFD1F88400009004D0D1F8F6
:103570008400009A9042FAD0086F10F4007F04BFD4
:103580004CF27100086642F24130886601B0704723
:10359000814881B0016F11F4007FFBD1816E11F081
:1035A000010F1CBFD0F88410009104D0D0F8841013
:1035B000009A9142FAD04FF40D51816601B07047E4
:1035C0007348806810F4805008BF70477248806E5E
:1035D00000F0010070477048406EC0F30F20704744
:1035E0006D48D0F88400704710B50C20FFF726FF17
:1035F0000C20FFF70BFF68490220486710BD6649A1
:1036000010B5032088670C20FFF70CFFBDE81040C1
:103610000C20FFF713BF614A11681060084670471D
:103620005D4810B5016FC1665C480068002818BF8E
:1036300080475B48016841F48051016010BD5748E4
:1036400040687047524810B5826852490A43826008
:10365000C2681143C1605049032088670C20FFF7FE
:10366000E1FE0C20FFF7EAFE00F05CF94D4B042070
:10367000C3F888004FF6FF70C3F88C0072B6603351
:10368000FFF74EFF4FF40070186062B610BDF8B53A
:1036900072B64148016F11F4007FFBD1816E11F0C9
:1036A000010F1CBFD0F88410009104D0D0F8841012
:1036B000009A9142FAD04FF40D51816639494FF486
:1036C00000320A6662B6D1F80412314D002946D0A4
:1036D000324C4FF6FF73591AA160AA69D5F81CC085
:1036E00002F00F020CF00F0C6244121D01FA02F2FC
:1036F000A2F54341DFF8B0C0513961452FD2D0F86F
:103700008400191AE160B1F5803F28D2274B4FF0B1
:10371000000CA1FB03070CFB037301FB0C31634698
:1037200019F092FA401C40082061B0F57A7F38BF4A
:103730004FF47A701E4B9968002908BF98605A6848
:103740001A609968C3E901108A421BD9824205D9DF
:10375000814201D9616002E0606000E0626000F0D7
:10376000EDF8A86820F4805040F00D7040F08050D3
:10377000A860E86820F4805040F00D7040F0805060
:10378000E860F8BD8242E9D88142E5D8E2E700006E
:10379000008000400010341200C00040708400100F
:1037A0006884001000A000404F62250000E1F5058C
:1037B000A89200100F4881680F4A114381600F489A
:1037C000016841F404710160001F016841F00401C7
:1037D0000160016841F0100101607047084908600C
:1037E0007047BFF34F8F084906480860BFF34F8FFB
:1037F000FEE70000008000400400341214ED00E0F9
:1038000008ED00E00400FA050CED00E015488168C1
:10381000154A114381601003416941F00101416182
:10382000016A21F00F0211490A430262104B8A1EFD
:10383000C3F8C420016570474FF04020006900F0D4
:10384000700070474FF040200A4940F8301F0A4985
:1038500041600A4901660A49416670474FF04020BD
:1038600040687047008000400400341203005FA0ED
:1038700000600040C0845FA055995FA00A005FA06F
:1038800000005FA0022824BF00207047DE4B53F8E1
:10389000202043F820101046704770B5DB4C206F95
:1038A000D94D10F0010F05D00120E06628680028EE
:1038B00018BF8047206F10F0020F08BF70BD0220B4
:1038C000E0666868002808BF70BDBDE8704000472A
:1038D000CF4810B58268CF490A438260C26811435D
:1038E000C160CA4902220A6501230B660323CB6625
:1038F0004A65816821F0800141F00D7141F08051ED
:103900008160C16821F0800141F00D7141F080516A
:10391000C1600920FFF77AFD0221BDE810400920AF
:10392000FFF751BDBA488268BA490A438260C2684B
:103930001143C160B549022008657047B3490220B0
:103940004865B348816821F0800141F00D7141F074
:1039500080518160C16821F0800141F00D7141F01A
:103960008051C1607047AA488068C0F3C01070479A
:10397000A648016F11F4007F14BF4FF440714FF45B
:1039800080710166704710B5A04CE06F10F0020F17
:103990004FF0010018BF0320606700F066F99C49F2
:1039A0008A69C96902F00F02D04001F00F01C840D6
:1039B0000521B0FBF1F04FF405710009C4F8801047
:1039C0009549A1FB00104009C4F88400206F10F451
:1039D000007F14BF4FF440704FF48070206610BD1C
:1039E0008A48016F11F4807F14BF4FF440714FF487
:1039F000007101667047854B30B4DA6F12F0010F29
:103A000014BF032202225A6700EB4005C5EBC01029
:103A1000C1EBC0004FF4FA744C43C0EB001000EB54
:103A200040007E4904EBC000A1FB00107849002251
:103A30004FF0020C8C69C008C96904F00F0401F052
:103A40000F012144C8400521B0FBF1F0B0F5803FE3
:103A500005D3511C4008CAB2B0F5803FF9D242EA02
:103A60000C2141F01001C3F88810C3F88C00186FC6
:103A700010F4807F14BF4FF440704FF4007018664C
:103A800030BC70476148016F11F4003F14BF4FF420
:103A900040314FF48031016670475C48016F11F48A
:103AA000803F14BF4FF440314FF40031016670473E
:103AB0005648006FC0F3002070475448006FC0F3B1
:103AC0004020704752498968C1F3C011002904BFE2
:103AD000002070474D4900280CBFD1F80002D1F8F2
:103AE000040270474A4B9A68C2F3C012002A04BF0E
:103AF00000207047454A00280CBFD2F88000D2F859
:103B00008800C0F30A200CBFD2F88020D2F88820A9
:103B100002F00F02D3F818C0DB690CF00F0C03F0B1
:103B20000F0363441A449140012202EB40004843D2
:103B30003949A1FB0010000970473949012008707C
:103B4000704770B4324B322251439A69D3F81CC08B
:103B500002F00F020CF00F0C6244121DD14008BF9E
:103B6000012104D0B1F5803F28BF4FF6FF719A685C
:103B7000C2F3C012002A1CBF70BC7047D3F808C043
:103B8000244A4CEA020CC3F808C0D3F80CC04CEA33
:103B90000202DA601D4A4FF0020CC2F850C04FF426
:103BA000003414660425C2F88850C2F88C101D4DEC
:103BB000D566C2F874C01C4902283CBF124E46F8B4
:103BC00020100021164801704FF400711166017831
:103BD00019B920BF01780029FBD014669567D56616
:103BE000C2F854C0986820F0800040F00D7040F09A
:103BF00080509860D86820F0800040F00D7040F050
:103C00008050D86070BC70478884001000A00040CD
:103C100000800040800034121F85EB51CDCCCCCC0D
:103C20008484001002000202EB5A00004FF0E021F1
:103C30000020886108611F494860704710B54FF047
:103C4000E02460610020A0610221401EFFF7BBFB61
:103C50000720206110BD4FF0E0210020086170476F
:103C600014480188491C01807047124880687047D9
:103C70002DE9F0410F4C002705462780A0684FF43E
:103C80007A71B0FBF1F04FF0E026401E7061B76131
:103C90000221C81EFFF797FB072030612188A94247
:103CA000FCD33761BDE8F08103494843014988608E
:103CB000704700009084001040420F00704770B5BC
:103CC00005464FF40D500406A0660320E066264822
:103CD00060664CF2710020662448C4F8800042F20D
:103CE0004630A06602210020FFF76DFB0020FFF7A1
:103CF0008DFB002D08BF70BDA06E42F2413108431C
:103D0000A06670BD012110B5880781674FF40D5181
:103D100081660020FFF786FBBDE810400020FFF71A
:103D20008DBB0120810748677047012081078867A4
:103D300070474CF271008107086670470C4A1168A1
:103D40001060084670470A4808B5006818B18047F7
:103D5000002818BF08BD4CF2710188070166016F89
:103D6000C166006F009008BD075E5F3700AF2F91FE
:103D70009C84001070B5F94D00244FF4E4612C7060
:103D80006C70EC70F64818F050FF4FF4E461F548A1
:103D900018F04BFFAC602C714C21F34818F045FF34
:103DA0004C21F24818F041FF6C717421F04818F072
:103DB0003CFF7421EF4818F038FFEC60AC71EC6107
:103DC0002C626C62AC62EC622C632C6170BDE349C6
:103DD000002048707047E14840787047DF4800791C
:103DE000002818BF01207047DC488079002818BFE0
:103DF00001207047D9484079002818BF012070473A
:103E0000D648C078002818BF012070470021D34849
:103E1000C16201637047D848704770B5D74A0546FC
:103E2000107851784218520014462946D24818F0AA
:103E300006FF22462946D24818F001FFC749012053
:103E4000887170BDC54800697047C448407800EB70
:103E50004001C1EB4010C64901EB800070472DE9DD
:103E6000F041BE4D0446C2496A78C64F02EB42009B
:103E7000C0EB4210C44E01EB80033A783078214603
:103E800010444200184618F0DAFE6A78B94902EB8D
:103E90004200C0EB421001EB80033A7830782146B3
:103EA00010444200184618F0CAFE01206871BDE8AF
:103EB000F081AA48C0687047A8484078C0EBC001AC
:103EC000C1EB8010A64901EB401070472DE9F0418D
:103ED000A24E07463078002814BFAC48AC4804789E
:103EE00014BFAC48AC48057804FB05F8FFF785F82B
:103EF00029462046FFF7DEF870789A4CC0EBC001E7
:103F0000C1EB801004EB4012A4F5E46101EB40101A
:103F10003B460146FFF7EFF8FFF77CF870784FEA71
:103F20004802C0EBC001C1EB801004EB40103946E1
:103F300018F085FE0120F070BDE8F0812DE9F04712
:103F4000864D044686496A78DFF84082C2EBC2009B
:103F5000C0EB821001EB40132878DFF834928D4ECD
:103F60008D4F002815BF98F8000099F800003278AE
:103F70003A7800FB02F04FEA40022146184618F05A
:103F80005EFE6A787749C2EBC200C0EB821001EB9B
:103F9000401C28782146002815BF98F8002099F881
:103FA000002033783B7802FB03F04FEA4002604682
:103FB00018F045FE0120E870BDE8F087674880688A
:103FC000704770B5754C0546014622786648520028
:103FD00018F035FE227829465200644818F02FFE6A
:103FE0005E490120087170BD2DE9F04FADF26C7D86
:103FF000DFF868910120CDF84C0799F80300CDF85F
:10400000480799F80400CDF8440799F80500CDF861
:10401000400799F80600CDF83C0701F0BDFB80464B
:10402000FDF7B2FDCDF86407FDF788FFCDF8600716
:10403000FDF7ECF9CDF85C07FCF753FF0446FCF7FD
:104040004DFF0746FDF7A2FD99F802001E26002548
:10405000002804BF0420C9F8180008D0B8F1020FE6
:1040600018BF0A200ED0C9F8180089F80250FDF7D1
:1040700094F9083000094FF0010BCDF85007022FDA
:104080000AD023E011F03AFC10F4817F14BF0F2016
:10409000C9F81860E7D1E8E7B8F1020F03D0B8F12A
:1040A000050F08D012E04FF47A71484390FBF1F00D
:1040B000C9F8180008E01220C9F8180011F0C3FC74
:1040C000002818BFC9F8186089F802B0D9F818009C
:1040D0000428BCBF0420C9F8180099F80200B9F8F8
:1040E0001810000240EA014040F001020023912133
:1040F00007200AF059F814F0010F51D1B8F1020F5E
:104100004ED00020FDF778F9FDF757FF18F0A1FD1C
:1041100000252F46CDF8385705F0F4FD012845D08D
:104120000DF5E460FEF74CF9002800F0DD820DF596
:10413000E46006F0ECFC002089F80100D9F81800D2
:10414000C01E8542CABF874201240024DDF82C0727
:1041500018B1DDF8440770B359E058E0A0840010AE
:10416000B4920010D499001034AF001080AF00104A
:10417000CCAF001040B00010BC84001006850010C9
:10418000C484001003850010048500100185001010
:10419000FE84001002850010FF84001005850010C9
:1041A000FDF7D2FE0020CDF84C07AFE70120CDF897
:1041B000380700F083BAFFE7DDF82CA77CB1FA4E90
:1041C000514630784200F94818F039FD30785146B0
:1041D0004200F74818F033FD89F804B017E0FEF705
:1041E0000CFFF14E01213078FEF764FFF04A534690
:1041F000A2F14C010846FEF77EFFFEF70BFF307878
:1042000051464200EA4818F01AFD89F804B0DDF87A
:104210002807002800F0D780DDF84807002840F084
:10422000D28099F80000DDF82867E0BBD9F808A033
:10423000BAF1000F24D0DF480078CDF85807DE48E7
:104240000078CDF85407FEF7D8FEDDF85417DDF8F6
:104250005807FEF735FF314652460846FEF775FF10
:10426000FEF7D8FED5480078022804BF504606F075
:104270001EF9D2480078092804BF304606F017F925
:10428000CF480078012816D9DFF830A39AF800004B
:10429000042804BF304606F00AF93146684618F093
:1042A000DDFC064600E006E09AF80000052804BFA1
:1042B000304606F0FCF8CCB399F8010099F80020DC
:1042C000C0EBC001C1EB8011BE48002A00EB4110D9
:1042D00031460CBFBC4AB74A137814BFB64ABB4A32
:1042E000127803FB02F24FEA420218F0A8FC99F898
:1042F0000100C0EBC001C1EB8011B54800EB4113D8
:1043000099F800003146002814BFAA48AE4800784A
:1043100014BFA94AAD4A127800FB02F04FEA4002EE
:10432000184618F08CFC89F803B03DE0FFE7CDF8A3
:10433000546799F80000002814BF9E48A24890F8DE
:1043400000A014BF9C48A14806780AFB06F0CDF8EF
:104350005807FEF752FE31465046FEF7ABFE99F87D
:1043600001009B4EC0EBC001C1EB801006EB401278
:10437000A6F5E46101EB40100146DDF85437FEF785
:10438000BAFEFEF747FEDDF85807420099F8010033
:10439000C0EBC001C1EB801006EB4010DDF85417F4
:1043A00018F04DFC89F803B08448007803280AD13E
:1043B00099F80100C0EBC001C1EB8011814800EB0E
:1043C000411006F074F8DDF8300700287DD0DDF8E4
:1043D0004007002879D199F80000DDF8306748BB24
:1043E000D9F80CA0BAF1000F24D07A4801787A48A5
:1043F00000780844401C4008019002200090FEF71D
:10440000FCFDDDE90010FEF75BFE31465246084632
:10441000FEF79BFEFEF7FEFD70480078022804BF01
:10442000504606F052F96D480078092804BF30461E
:1044300006F04BF94CB399F80100DFF898A100EBB6
:104440004001C1EB401166489AF8002000EB81035F
:1044500061483146007810444200184618F0EFFBDE
:1044600099F801005C4A00EB4001C1EB40115D4846
:104470009AF80030127800EB81001A44314652005D
:1044800018F0DDFB89F805B030E05248009601785D
:10449000514800780E18FEF7B0FD701C400802214C
:1044A000FEF708FE99F80100DFF838A100EB4001A3
:1044B000C1EB4010AAF174010AEB800201EB80010C
:1044C0000846009BFEF717FE00E01EE0FEF7A2FD87
:1044D00099F80100720000EB4001C1EB40100AEBBB
:1044E0008000009918F0ABFB89F805B03B480078D4
:1044F00003280AD199F8010000EB4001C1EB4011FB
:10450000374800EB810006F0E0F8DDF834070028BA
:1045100073D0DDF83C0730B1B8F1020F18BFB8F125
:10452000050F6BD0BDE099F80000DDF8346740BBA3
:10453000D9F810A0BAF1000F23D02B4801784078A9
:104540000844401C4008019002200090FEF755FDF1
:10455000DDE90010FEF7B4FD314652460846FEF78D
:10456000F4FDFEF757FD21480078022804BF5046AD
:1045700006F0CAF91D480078092804BF304606F045
:10458000C3F9194801784078B4B30844440022467E
:104590003146174818F053FB22463146154818F0AB
:1045A0004EFB89F806B042E00585001034AF0010DC
:1045B00080AF001001850010028500107D8500107D
:1045C00000850010B4920010FE840010FF840010DB
:1045D000D499001003850010048500108285001016
:1045E000CCAF001040B00010068500108785001089
:1045F000BC840010C484001001E052E028E00C18D4
:10460000FEF7FBFC601C40080221FEF753FDFB4A4D
:104610003346A2F108010846FEF76DFDFEF7FAFCED
:1046200062003146F54818F00AFB89F806B0F448F4
:104630000078032804BFF34806F066F918F013FB6E
:104640000020C9F82C00C9F8300000F086FE28E0F0
:104650000021DDF8340718F00BFBDDF8500778284F
:1046600028BF15F0010F1CD0E74C207A58B1082064
:10467000FCF7AEF8E54A1378527899184A000146DB
:104680000820FBF752FEE07958B10720FCF7A0F8AC
:10469000DE4A01460720137852781A445200FBF78D
:1046A00044FEFDF7EAFED9F818006D1C7F1C854218
:1046B000A8BF874211DBD9F8140070B1FDF766FA84
:1046C000DDF85C07FCF798FEDDF8640788B1DDF8DB
:1046D000600760B1FDF771FC0BE0DDF84C070028C6
:1046E00018BFFDF76AFC17E501F0A3F814E5FDF724
:1046F0002BFCDDF83807002804BF0420C9F8180097
:104700000FD0DDF8480789F80300DDF8440789F881
:104710000400DDF8400789F80500DDF83C0789F85A
:104720000600DDF83807B9F81810000240EA014227
:1047300000239121072009F037FDDDF838070DF23D
:104740006C7DBDE8F08F10B50024FDF7E9FBB049A2
:1047500010F0020F0AD0CA78002A08BF012410F016
:10476000040F03D00A79002A08BF012410F0010FBA
:1047700003D04A79002A08BF012410F0200F03D08B
:104780008879002808BF01240020002C08BF10BD34
:1047900000200870BDE8104026E438B505460F2417
:1047A00011F0ACF840B100F0F7FF022803D000F0A0
:1047B000F3FF052800D10E242146284601F047F9D1
:1047C000012804D1FFF7BFFF009001F0B9FA90482B
:1047D000C17800291CBF4179002906D081790029C0
:1047E0001FBF00790028012038BD002038BDD4E764
:1047F000704770B5864C00250646E57025716571D9
:10480000FCF737F8002818BFA571002E1CBF012047
:10481000A070BDE870400AF098B9002818BF0120C8
:104820007B49C87170477A48C079704710B54FF41A
:10483000E461784818F0F9F9BDE810404FF4E461FC
:10484000754818F0F2B92DE9F041714D069A2978B2
:10485000002914BF714972490978D21A4A4303FBEF
:1048600001F469785200C1EBC103C3EB8111694BBC
:10487000164603EB411101EB440300EB44010F46E4
:10488000184618F0DCF968783246C0EBC001C1EB7D
:104890008010614901EB401000EB4400394618F0EC
:1048A000CEF90120E870BDE8F0812DE9F047584FBE
:1048B000804608983978002914BF584958490D781E
:1048C000A0EB030905FB09F603FB05F4FEF795FBD6
:1048D00049462846FEF7EEFB78784F4DC0EBC00105
:1048E000C1EB801005EB401101EB4402A5F5E4613A
:1048F00001EB401000EB440008EB4408434601463E
:10490000FEF7F9FBFEF786FB78787200C0EBC0017A
:10491000C1EB801005EB401000EB4400414618F05D
:104920008EF90120F870BDE8F0873E4870473C489A
:1049300001783D480078484341003A4818F075B97D
:1049400070B506463648047837480578FEF755FBBB
:1049500029462046FEF7B4FB2D484078C0EBC00145
:10496000C1EB80102B4901EB401231462D48FEF778
:10497000ECFBFEF74FFB2D480078152818BF70BDE3
:104980002848BDE8704005F092BD002818BF0120FE
:104990001F49C870704710B51D4C002804BFA060A7
:1049A00010BDDFF88CC01D490B7822490A780146FA
:1049B0005A435200604618F042F91D48A06010BDED
:1049C00010B54C211C4818F030F9BDE810404C21BE
:1049D0001A4818F02AB918487047002818BF012053
:1049E0000B490871704710B57421154818F01DF96E
:1049F000BDE810407421134818F017B9C4840010A2
:104A000087850010BC840010F8880010068500100F
:104A1000A0840010B4920010D499001001850010F9
:104A2000FE840010F4A00010FF8400107D850010AB
:104A300014A800100285001034AF001080AF0010E1
:104A4000CCAF001040B00010002818BF0120FB4977
:104A50004871704710B5F94C002804BFE06010BDE4
:104A600074220146F64818F0EAF8F548E06010BDF7
:104A7000F2480021C161016241628162C162016349
:104A80007047002818BF0120EC498871704710B5A5
:104A9000EA4C002804BF206110BDEA490A78497831
:104AA00011444A000146E84818F0C9F8E648206178
:104AB00010BDE6487047E34A0146E448137852784F
:104AC0001A44520018F0BBB830B44FF0000C029CEE
:104AD000634304BF30BC704732F91C4051F82C507E
:104AE0002C4440F82C400CF1010C6345F4D830BC48
:104AF0007047002B08BF704710B4DDF804C0BCF14C
:104B0000000F4FF0000C11D0002A9CBF10BC704762
:104B100051F82C4004EB5304B4FBF3F420F81C4090
:104B20000CF1010C6245F3D810BC7047002A9CBF01
:104B300010BC704751F82C4094FBF3F420F81C4053
:104B40000CF1010C6245F5D810BC704770B5BB4D37
:104B500000260446EE702E716E71FBF78AFE002867
:104B600018BFAE7109F0F1FF002C14BF0120002026
:104B70002870BDE87040FFF737BA2DE9F04F8FB0CD
:104B80004FF4E461B24818F050F87421AC4818F0C2
:104B90004CF8AA4E00207063B06300900190029020
:104BA0000390FDF7BDF90446FCF7EEFF0C90FDF70E
:104BB000C5F90B90FCF72AFC0A90FCF7E7FF0020F0
:104BC000FCF71AFCFDF7F9F900273D4605F09AF8C5
:104BD000012878D004A8FDF7F3FB002872D004A8C0
:104BE00005F095FF14F0020F1DD099480D908346F3
:104BF0009848DDF818A090F80080974890F8009049
:104C0000FEF7FBF90120FEF769FA49464046FEF738
:104C100057FA5A4651460D98FEF797FA0020FEF7CC
:104C20005DFAFEF7F7F914F0010F21D084480D90DA
:104C300083468A484FF00209DDF820A001788848B1
:104C400000780844401C4FEA5008FEF7D6F90120CE
:104C5000FEF744FA49464046FEF732FA5A465146B4
:104C60000D98FEF772FA0020FEF738FAFEF7D2F937
:104C700014F0200F1DD073496B46099891F800C0BD
:104C800049781A466144491C4FEA510C00214FF003
:104C900002085FEA4C0918BF0CFB08FC09D030F988
:104CA000118052F82190C84443F82180491C8C455A
:104CB000F5D8FDF7E2FB7F1C102F05D2FDF77DF93B
:104CC00084E700E00CE00125FCF760FF0A98FCF7A0
:104CD00093FB0C9848B10B9828B1FDF76EF904E0EE
:104CE00000F0A7FD72E7FDF72FF9002D52D114F067
:104CF000020F18D05748564B017857489C46007809
:104D000001FB00F210200021002A0AD93CF9118091
:104D100008EB5008B8FBF0F723F81170491C8A42E1
:104D2000F4D84B48B06014F0010F18D04B48444BF6
:104D300001784B481F4600780A184FF010004FF0DA
:104D400000010AD037F9118008EB5008B8FBF0FCDD
:104D500023F811C0491C8A42F4D83948F06014F095
:104D6000200F17D03748384C6B46017840780A1826
:104D70004FF010014FF000000AD053F820C00CEBA8
:104D8000510CBCFBF1FC24F810C0401C8242F4D84A
:104D90002D4830610FB02846BDE8F08F01207047E4
:104DA0004FF43F3070474FF43F30006870474FF486
:104DB0003F310A68B2F1FF3F15D0052804BFC87A19
:104DC000704728DC012804BF08797047022804BF17
:104DD000087A7047032804BF487A7047042804BF44
:104DE000887A704727E0052813D007DC012822D0F5
:104DF00002281CBF032804280BD01CE0142812BF73
:104E000015282D207047162804BF28207047172822
:104E100011D100207047142804BF087B7047152863
:104E200004BF487B7047162804BF887B704717284B
:104E300004BFC87B7047FF2070470000A0840010AB
:104E4000B4B0001006850010D4840010CC8400108B
:104E500014A80010018500100285001003850010C1
:104E60000485001070B5ADF5007D00244FF400718D
:104E7000684617F0DAFE4FF43F36FF224FF4007118
:104E8000684617F0FAFEFF21254661F307052D223B
:104E9000214662F3070162F30F2128224BF6BB3053
:104EA00062F3174164F31F61CDE90005CDE90241CA
:104EB00004943046FDF7D4FE69463046FDF772FF94
:104EC0000DF5007D70BD2DE9F04F4FF43F34ADF589
:104ED000017D834620688A9F984691468A46B0F1B4
:104EE000FF3F08BFFFF7BEFFD4E901106AF30700D8
:104EF00069F30F20256868F31740D4E903646BF366
:104F0000070167F31F608B460746FF224FF40071CD
:104F1000684617F0B2FE0297CDE90364CDE9005B65
:104F20004FF43F342046FDF79BFE69462046FDF7CF
:104F300039FF012818BF00200DF5017DBDE8F08F75
:104F40002DE9F04F4FF43F3389461D680021ADF540
:104F5000017D90468246B5F1FF3F02BF08460DF540
:104F6000017DBDE8F08FFF22D3E902744FF4007198
:104F70006846D3F810B05E6817F07FFE6AF3070446
:104F800069F30F2468F31744012060F31F64CDE92F
:104F90000274CDE900564FF43F34CDF810B02046EE
:104FA000FDF75EFE69462046FDF7FCFE0DF5017D2E
:104FB000BDE8F08F2DE9F04F4FF43F30894E0025CA
:104FC0000368ADF5017D74422F461720FFF7EFFE11
:104FD00084461420FFF7EBFE40B2B3F1FF3F04D04C
:104FE000BCF1000F03D12D2801D0FFF73BFF1420A7
:104FF000FFF7DDFE40B202901520FFF7D8FE4FFA12
:1050000080F91620FFF7D3FE40B201901620FFF77B
:10501000CEFE404240B20090FCF782FFDFF8C8A10C
:10502000834600208AF803008AF804008AF8050005
:10503000FBF71FFC00281CBF00208AF8060009F0BF
:1050400084FD00208AF80000FEF7CEFF1BF0010F60
:1050500004D017F017FE012808BF01251BF0020F2E
:105060007ED062489AF801104FF0000890F800C016
:105070005F48C1EBC102C2EB811100785D4A002894
:1050800002EB4112C8BFACF1010A1EDD0021BAF1EA
:10509000000F16DD01F1010B01FB00830BFB008B00
:1050A00032F8133032F81BB0A3EB0B031BB2002B0A
:1050B000B8BF5B421BB2BB42C8BF1F46491C51452B
:1050C000E8DB08F101088045E0DBB945B8BF45F0F1
:1050D00002054FF00008C146BCF1000FC8BFA0F1A7
:1050E000010A1BDD0021BAF1000F13DD09FB0013DB
:1050F00032F813B002EB43035B88ABEB03031BB244
:10510000002BB8BF5B421BB24345C8BF9846491C41
:105110005145EBDB09F10109E145E3DB029941452A
:10512000B8BF45F004054FF00009BCF1000F13DDD6
:10513000002300280CDD09FB003132F91110B142C7
:10514000C8BF0E46A142B8BF0C465B1C8342F2DBCF
:1051500009F10109E145EBDB0198B04204DB00E015
:1051600004E00098A04201DD45F00805604208F027
:10517000FF0B4FF43F3400F0FF08206807F0FF0AF0
:1051800006F0FF09B0F1FF3F08BFFFF76BFED4E95F
:1051900001106BF307006AF30F20266869F31740CC
:1051A000D4E9037465F3070168F31F600D46804678
:1051B000FF224FF40071684617F05FFDCDF80880BC
:1051C000CDE90374CDE900654FF43F342046FDF787
:1051D00047FD69462046FDF7E5FD0DF5017DBDE87B
:1051E000F08F0000F1D8FFFFA0840010FF840010B2
:1051F000FE840010B4920010FE4800897047FD48FC
:105200004089704770B515460E46044609F025FDE5
:10521000002C18BF70BD042806D0F748006890F82D
:105220002400A84288BF70BD3046BDE8704017F02A
:105230002EBD2DE9FF5F8346F0480027DDF838A03A
:1052400005780398109EB9463C4650452CD006FB85
:10525000050E0F983BF91EC006FB05093BF9190026
:10526000BCEB000348BFA0EB0C0306FB05A83BF911
:105270001840B4EB000C48BFA0EB040C03EB0C008F
:1052800004B231F91EC031F91900BCEB000348BF6C
:10529000A0EB0C0331F918C0BCEB000148BFA0EB38
:1052A0000C0158180FFA80F9012A2DD04FF001088F
:1052B00017F0F2FCD249002C0A782EDD0F9906FB7C
:1052C00005113BF911101431282926D9039902EB55
:1052D0000A0C11448C4520D9119B129D13442A4479
:1052E0008B421CBF8D1A15F1020F30F9115000EBE3
:1052F0004106B6F90260A5EB060508D01E353C2D27
:1053000008D94FF0000808E0A1450CDD0AE00A3595
:10531000142DF6D8491C8C45E2D8A14503DDB8F11F
:10532000000F00D0012704B03846BDE8F09FB14817
:105330000021817181817047B24A02804280002140
:105340008280C1800181534243818181C181018278
:105350004182C182018382827047A6490020C881B0
:1053600008617047A3480021416181617047A648E8
:105370007047A64A0146A448137852781A4452004E
:1053800017F05DBC2DE9F04383B00C460546FFF7EE
:1053900090FB02469C480021031F002C88BF4FF061
:1053A000010C0AD95E5C2EB935F911603C2EA8BFFC
:1053B00003F801C0491CA142F4D38E4EB6F80E800A
:1053C000B8F1000F09D10021002C06D935F811C021
:1053D00020F811C0491C8C42F8D80021EC46002C62
:1053E0000AD935F8117030F81190A7EB09072CF89D
:1053F0001170491C8C42F4D8B8F11E0F24BF002153
:10540000002C11D9585C00281CBF3CF9110010F188
:10541000140F06DD142804DC32F81170384422F829
:105420001100491CA142EDD31046FFF744FBF0895F
:1054300042F2107188423ABF401CF081F1817348FA
:10544000294602784078104442006F4817F0F7FB75
:1054500003B0BDE8F083009800140028CCBF012001
:10546000002070472DE9F047814617F01AFC0546E9
:1054700062482824012706784FF0060A4FF00908F1
:1054800000F08AF9052808BF32240AFB067035F9B6
:105490001010A142D8BFBDE8F08705EB4000B0F97D
:1054A00002008442D8BFBDE8F08708FB067035F9DA
:1054B0001010A142D8BFBDE8F08705EB4000B0F95D
:1054C00002008442D8BFBDE8F0874FF0FF30C9F832
:1054D00000004848C770BDE8F0872DE9FF4F85B050
:1054E0001F46DDE9129A90460446DDF854B009F0F3
:1054F000B4FB09F03BFB00253E4E00285ED010F0C7
:10550000A2FA002834D017F0CCFB82463B48062193
:105510004FF0280990F800B0012004900290092073
:105520000091039000F038F9052808BF4FF03209C8
:105530000099049801FB0B003AF91010494517DD5A
:105540000AEB4000B0F90200814511DDDDE90210EF
:1055500000FB0B103AF91010494509DD0AEB400039
:10556000B0F90200814503DD01204FF0FF34F070F7
:10557000B4F1FF3F00F0D680002C07BF70780128FF
:1055800009B0BDE8F08F757009F067FB042800F0E2
:10559000DF8005F0CEFC04287ED0B8F1000F1CBFE0
:1055A0004046FEF7CBFC002F04BF09B0BDE8F08FEA
:1055B000384609B0BDE8F04FFEF751BC09F074FC65
:1055C000009009F0BFFA002804BFB571B58130D052
:1055D000B6F90C008345C8BFA6F80CB0B6F90C00AC
:1055E0000B4900EB801081FB00104111A1EBE07032
:1055F00058450FE0DC84001064860010FE84001023
:1056000004850010F1D8FFFFF0840010068500101B
:105610001F85EB5125DD0098012822D0B079401C70
:10562000C0B2B071032804D9B5710120B581F07002
:10563000841E069803900A2002904E48DDF850B070
:10564000BAF1010F007800904B480078019008BF34
:10565000BBF1000F07D0308948B309F0C1FA40B15F
:1056600025E0B571E5E77079052824BF0520707144
:105670003CE0B9F1010F02D17089C82817D87089B0
:10568000002804BF3089002811D009F05BFA0128F6
:1056900018BF1E210DD000E05AE0DDE900230020F4
:1056A000D31817D0039A32F910208A420EDD757193
:1056B0001CE0BBF1010F08BF4121ECD005203C21CB
:1056C0000290B9F1000FC8BF3221E4E7401C80B25C
:1056D0008342E7D87079401CC0B270710299814250
:1056E00004D20120F0704FF0FF34757109F02AFAEE
:1056F00001287FF43DAFB9F1000FC8BF35713FF706
:1057000037AFBAF1010F3FF433AF3079401CC0B26C
:1057100030710A287FF62CAF0120F0704FF0FF3473
:10572000357125E7F07801281CBF09B0BDE8F08F7E
:105730004046FFF705F9F570B8F1000F1CBF404671
:10574000FEF7FCFB002F7FF433AF09B0BDE8F08F0C
:10575000B8F1000F1CBF4046FEF7B8FB002F04BF96
:1057600009B0BDE8F08F384609B0BDE8F04F17F03A
:105770009DBA0000038500100485001010B506F0E6
:10578000DDF906F086FA002010BD0000FE498870A1
:105790007047FD4880787047FB4800787047FA48AA
:1057A00040787047F8480078022805D005281CBFCB
:1057B0000020704705F0BDBB09F04FBAF2490870F0
:1057C000704770B5F04E04460D463078A04212D0B6
:1057D00002281AD0052814BF002005F0AAFB44EACD
:1057E00005213278002341EA024141EA0062612149
:1057F000072008F0D9FC7570072C28BF70BDDFE8C2
:1058000004F016070B13160F160009F026FAE6E748
:10581000284600F0A3FA0AE0284609F019FA06E043
:10582000284605F07BFB02E0284608F075FD347041
:1058300070BDD64900200968B1F8641011F4807F6A
:1058400008BF7047FDF735B9D04900200968B1F8A5
:10585000641011F4807F08BF7047FDF739B9CB4958
:1058600000200968B1F8641011F4007F08BF704788
:1058700017F021BAC54900200968B1F8641011F485
:10588000806F08BF704717F01BBABF49C87800285F
:105890001CBF401EC870704770B5BD49D1F8CC0020
:1058A000B94C10F0030F0AD040F4BE0040F0204085
:1058B000C1F8C800E078002804BF0120E070B548B6
:1058C0008068B24D10F0020F296807D14FF04020D8
:1058D000406910F0010F01D0E07840B1B1F86410D8
:1058E000002011F4807F18BFFDF7F2F807E0B1F84F
:1058F0006410002011F4806F18BF17F0E1F9A64979
:10590000084208BF70BD2968496E090CE17070BD7E
:1059100010B572B6FEF7F6F9BDE81040FDF761BFAD
:1059200010B5012802D0022805D008E04FF443301A
:10593000FDF796F903E04FF040219848086772B6EA
:10594000FEF7E0F9BDE81040FDF74BBF8E49002897
:105950000A7918BF01200871C0B2824208BF70479F
:105960000022002818BF012200230121022008F094
:105970001BBC85480079002818BF01207047824869
:10598000407970472DE9F0417F4E00281CBF002070
:10599000707104D17079002818BFBDE8F0814FF014
:1059A00040273D6B0120FDF7CCFA0420FDF7C9FA32
:1059B0007B4C0520E066FEF7BCF940F2CF70216F0A
:1059C00011F0010F04D0707940F00E00707103E007
:1059D000011EA0F10100F2DC707978B1FEF7A9F99F
:1059E0007048216F11F0040F04D0707940F001006D
:1059F000707103E0011EA0F10100F2DC45F4BE006D
:105A000040F020403863BDE8F0815F48406970474E
:105A10005D48006970475C480069002818BFC07A7B
:105A2000704759498861704757488069704756499F
:105A3000C86170475448C06970475448026802F50D
:105A4000C073118A508A02F5A072FCF744BB2DE99D
:105A5000F04FDFF8349197B08A46C9F8140005F08A
:105A60008FFFC9F81000002800F0B78090F800C040
:105A700089F806C0417889F80710837804460CF14C
:105A8000010089F8083000F0FE0089F80900E2788A
:105A900089F80A20207989F80B00607989F80C00D0
:105AA00009F10E05A0792870E0796870207889F8EE
:105AB0000D006046FCF750FC99F80C1099F80B00AB
:105AC000FCF76DFC69782878FCF773FC6946204682
:105AD00005F07FFF608AD9F8185000281CBF684382
